{
  "contractName": "ZombieFactory",
  "abi": [
    {
      "inputs": [
        {
          "internalType": "uint256",
          "name": "",
          "type": "uint256"
        }
      ],
      "name": "zombies",
      "outputs": [
        {
          "internalType": "string",
          "name": "name",
          "type": "string"
        },
        {
          "internalType": "uint256",
          "name": "dna",
          "type": "uint256"
        }
      ],
      "stateMutability": "view",
      "type": "function"
    }
  ],
  "bytecode": "0x60806040526010600055600054600a6100189190610199565b60015534801561002757600080fd5b506101e4565b7f4e487b7100000000000000000000000000000000000000000000000000000000600052601160045260246000fd5b60008160011c9050919050565b6000808291508390505b60018511156100b35780860481111561008f5761008e61002d565b5b600185161561009e5780820291505b80810290506100ac8561005c565b9450610073565b94509492505050565b6000826100cc5760019050610188565b816100da5760009050610188565b81600181146100f057600281146100fa57610129565b6001915050610188565b60ff84111561010c5761010b61002d565b5b8360020a9150848211156101235761012261002d565b5b50610188565b5060208310610133831016604e8410600b841016171561015e5782820a9050838111156101595761015861002d565b5b610188565b61016b8484846001610069565b925090508184048111156101825761018161002d565b5b81810290505b9392505050565b6000819050919050565b60006101a48261018f565b91506101af8361018f565b92506101dc7fffffffffffffffffffffffffffffffffffffffffffffffffffffffffffffffff84846100bc565b905092915050565b6102ea806101f36000396000f3fe608060405234801561001057600080fd5b506004361061002b5760003560e01c80632052465e14610030575b600080fd5b61004a60048036038101906100459190610158565b610061565b604051610058929190610224565b60405180910390f35b6002818154811061007157600080fd5b906000526020600020906002020160009150905080600001805461009490610283565b80601f01602080910402602001604051908101604052809291908181526020018280546100c090610283565b801561010d5780601f106100e25761010080835404028352916020019161010d565b820191906000526020600020905b8154815290600101906020018083116100f057829003601f168201915b5050505050908060010154905082565b600080fd5b6000819050919050565b61013581610122565b811461014057600080fd5b50565b6000813590506101528161012c565b92915050565b60006020828403121561016e5761016d61011d565b5b600061017c84828501610143565b91505092915050565b600081519050919050565b600082825260208201905092915050565b60005b838110156101bf5780820151818401526020810190506101a4565b60008484015250505050565b6000601f19601f8301169050919050565b60006101e782610185565b6101f18185610190565b93506102018185602086016101a1565b61020a816101cb565b840191505092915050565b61021e81610122565b82525050565b6000604082019050818103600083015261023e81856101dc565b905061024d6020830184610215565b9392505050565b7f4e487b7100000000000000000000000000000000000000000000000000000000600052602260045260246000fd5b6000600282049050600182168061029b57607f821691505b6020821081036102ae576102ad610254565b5b5091905056fea2646970667358221220d19c131a1db0d6b3beec9e539d94ac831d16ea0e7557b25a3a280691f114e90964736f6c63430008110033",
  "immutableReferences": {},
  "source": "// SPDX-License-Identifier: MIT\r\npragma solidity >=0.5.0 <0.9.0;\r\n\r\ncontract ZombieFactory {\r\n    uint256 dnaDigits = 16;\r\n    uint256 dnaModulus = 10**dnaDigits;\r\n\r\n    struct Zombie {\r\n        string name;\r\n        uint256 dna;\r\n    }\r\n\r\n    Zombie[] public zombies;\r\n}\r\n",
  "sourcePath": "c:\\Users\\zakla\\dev\\crypto-zombies\\contracts\\Zombie.sol",
  "compiler": {
    "name": "solc",
    "version": "0.8.17+commit.8df45f5f.Emscripten.clang"
  },
  "schemaVersion": "3.4.10",
  "updatedAt": "2022-11-10T14:19:58.261Z",
  "devdoc": {
    "kind": "dev",
    "methods": {},
    "version": 1
  },
  "userdoc": {
    "kind": "user",
    "methods": {},
    "version": 1
  }
}